:100000000C945C000C9479000C9479000C947900A9
:100010000C9479000C9479000C9479000C9479007C
:100020000C9479000C9479000C9479000C9479006C
:100030000C9479000C9479000C9479000C9479005C
:100040000C9424010C9479000C9479000C947900A0
:100050000C9479000C9479000C9479000C9479003C
:100060000C9479000C947900000000080002010053
:100070000003040700000000000000000000000072
:10008000250028002B0000000000240027002A0083
:10009000040404040404040402020202020203032E
:1000A0000303030301020408102040800102040836
:1000B000102001020408102011241FBECFEFD8E049
:1000C000DEBFCDBF11E0A0E0B1E0E4E4F4E002C0A7
:1000D00005900D92A031B107D9F721E0A0E1B1E080
:1000E00001C01D92AB31B207E1F70E946E010C9482
:1000F00020020C94000090E0FC01E859FF4F34917D
:10010000FC01EC55FF4F2491FC01E057FF4FE491B7
:10011000EE2309F43BC0332339F1333091F038F446
:100120003130A9F0323001F584B58F7D12C03730FF
:1001300091F03830A1F03430B9F4809180008F7D97
:1001400003C0809180008F77809380000DC084B5BC
:100150008F7784BD09C08091B0008F7703C08091F4
:10016000B0008F7D8093B000F0E0EE0FFF1FE458E9
:10017000FF4FA591B4918FB7F894EC91611103C032
:1001800020952E2301C02E2B2C938FBF08953FB7AF
:10019000F8948091150190911601A0911701B091EA
:1001A000180126B5A89B05C02F3F19F00196A11D87
:1001B000B11D3FBFBA2FA92F982F8827820F911DFD
:1001C000A11DB11DBC01CD0142E0660F771F881F44
:1001D000991F4A95D1F708958F929F92AF92BF923F
:1001E000CF92DF92EF92FF920E94C7004B015C0119
:1001F00084EFC82EDD24D394E12CF12C0E94C7009B
:10020000DC01CB0188199909AA09BB09883E9340F2
:10021000A105B10558F021E0C21AD108E108F108A2
:1002200088EE880E83E0981EA11CB11CC114D10475
:10023000E104F10419F7FF90EF90DF90CF90BF90A9
:10024000AF909F908F9008951F920F920FB60F92CC
:1002500011242F933F938F939F93AF93BF938091DC
:10026000110190911201A0911301B09114013091EC
:10027000100123E0230F2D3720F40196A11DB11D9D
:1002800005C026E8230F0296A11DB11D2093100181
:100290008093110190931201A0931301B093140164
:1002A0008091150190911601A0911701B09118014C
:1002B0000196A11DB11D8093150190931601A09385
:1002C0001701B0931801BF91AF919F918F913F910A
:1002D0002F910F900FBE0F901F901895789484B5B2
:1002E000826084BD84B5816084BD85B5826085BD32
:1002F00085B5816085BD80916E00816080936E00C0
:1003000010928100809181008260809381008091B1
:100310008100816080938100809180008160809362
:1003200080008091B10084608093B1008091B00022
:1003300081608093B00080917A00846080937A001D
:1003400080917A00826080937A0080917A00816047
:1003500080937A0080917A00806880937A0010926E
:10036000C10080E190E090931A0180931901C0E0F0
:10037000D1E000E010E08091190190911A01081776
:10038000190754F5DE01888199819927FC01EC5504
:10039000FF4F4491FC01E057FF4F84918823A1F067
:1003A00090E0880F991FFC01EA57FF4F2591349187
:1003B000FC01E458FF4F859194918FB7F894F901AF
:1003C0009081942B90838FBF229660E08C910E9445
:1003D0007B000F5F1F4FCFCF90E0A92E90E0B92E8A
:1003E00082E0E82E81E0F82E8701C1E0D0E0C090E5
:1003F0001901D0901A01CC15DD055CF4F80180815B
:100400000E5F1F4F61E00E947B000E94EC0021966E
:10041000EECFC1E0D0E0CC15DD0564F4F7018081BA
:10042000F2E0EF0EF11C60E00E947B000E94EC0005
:100430002196F1CFA114B10499F20E940000D0CF0F
:04044000F894FFCF5E
:100444000200030004000500070009000B000D0072
:00000001FF
